{
  "_format": "hh-sol-artifact-1",
  "contractName": "Aven",
  "sourceName": "contracts/Aven.sol",
  "abi": [
    {
      "inputs": [
        {
          "internalType": "address",
          "name": "_avenPOA",
          "type": "address"
        }
      ],
      "stateMutability": "nonpayable",
      "type": "constructor"
    },
    {
      "anonymous": false,
      "inputs": [
        {
          "indexed": true,
          "internalType": "address",
          "name": "user",
          "type": "address"
        },
        {
          "indexed": true,
          "internalType": "uint256",
          "name": "id",
          "type": "uint256"
        }
      ],
      "name": "AttendanceProof",
      "type": "event"
    },
    {
      "anonymous": false,
      "inputs": [
        {
          "indexed": true,
          "internalType": "uint256",
          "name": "id",
          "type": "uint256"
        },
        {
          "indexed": true,
          "internalType": "address",
          "name": "user",
          "type": "address"
        }
      ],
      "name": "UserRegistered",
      "type": "event"
    },
    {
      "inputs": [
        {
          "internalType": "uint256",
          "name": "",
          "type": "uint256"
        }
      ],
      "name": "allPrograms",
      "outputs": [
        {
          "internalType": "uint256",
          "name": "id",
          "type": "uint256"
        },
        {
          "internalType": "string",
          "name": "title",
          "type": "string"
        },
        {
          "internalType": "string",
          "name": "desc",
          "type": "string"
        },
        {
          "internalType": "uint256",
          "name": "startDate",
          "type": "uint256"
        },
        {
          "internalType": "uint256",
          "name": "startTime",
          "type": "uint256"
        },
        {
          "internalType": "uint256",
          "name": "closeDate",
          "type": "uint256"
        },
        {
          "internalType": "uint256",
          "name": "duration",
          "type": "uint256"
        },
        {
          "internalType": "bool",
          "name": "isActive",
          "type": "bool"
        },
        {
          "internalType": "address",
          "name": "creator",
          "type": "address"
        }
      ],
      "stateMutability": "view",
      "type": "function"
    },
    {
      "inputs": [
        {
          "internalType": "uint256",
          "name": "",
          "type": "uint256"
        }
      ],
      "name": "allUsers",
      "outputs": [
        {
          "internalType": "uint256",
          "name": "id",
          "type": "uint256"
        },
        {
          "internalType": "address",
          "name": "userAddress",
          "type": "address"
        },
        {
          "internalType": "bool",
          "name": "isRegistered",
          "type": "bool"
        }
      ],
      "stateMutability": "view",
      "type": "function"
    },
    {
      "inputs": [
        {
          "internalType": "uint256",
          "name": "id",
          "type": "uint256"
        }
      ],
      "name": "archiveEvent",
      "outputs": [],
      "stateMutability": "nonpayable",
      "type": "function"
    },
    {
      "inputs": [
        {
          "internalType": "uint256",
          "name": "",
          "type": "uint256"
        }
      ],
      "name": "archivePrograms",
      "outputs": [
        {
          "internalType": "uint256",
          "name": "id",
          "type": "uint256"
        },
        {
          "internalType": "string",
          "name": "title",
          "type": "string"
        },
        {
          "internalType": "string",
          "name": "desc",
          "type": "string"
        },
        {
          "internalType": "uint256",
          "name": "startDate",
          "type": "uint256"
        },
        {
          "internalType": "uint256",
          "name": "startTime",
          "type": "uint256"
        },
        {
          "internalType": "uint256",
          "name": "closeDate",
          "type": "uint256"
        },
        {
          "internalType": "uint256",
          "name": "duration",
          "type": "uint256"
        },
        {
          "internalType": "bool",
          "name": "isActive",
          "type": "bool"
        },
        {
          "internalType": "address",
          "name": "creator",
          "type": "address"
        }
      ],
      "stateMutability": "view",
      "type": "function"
    },
    {
      "inputs": [],
      "name": "avenPOA",
      "outputs": [
        {
          "internalType": "contract AvenPOA",
          "name": "",
          "type": "address"
        }
      ],
      "stateMutability": "view",
      "type": "function"
    },
    {
      "inputs": [
        {
          "internalType": "string",
          "name": "_title",
          "type": "string"
        },
        {
          "internalType": "string",
          "name": "_desc",
          "type": "string"
        },
        {
          "internalType": "uint256",
          "name": "_startDate",
          "type": "uint256"
        },
        {
          "internalType": "uint256",
          "name": "_startTime",
          "type": "uint256"
        },
        {
          "internalType": "uint256",
          "name": "_closeDate",
          "type": "uint256"
        },
        {
          "internalType": "uint256",
          "name": "_duration",
          "type": "uint256"
        }
      ],
      "name": "createEvent",
      "outputs": [],
      "stateMutability": "nonpayable",
      "type": "function"
    },
    {
      "inputs": [
        {
          "internalType": "uint256",
          "name": "id",
          "type": "uint256"
        }
      ],
      "name": "eventSignup",
      "outputs": [],
      "stateMutability": "nonpayable",
      "type": "function"
    },
    {
      "inputs": [
        {
          "internalType": "uint256",
          "name": "id",
          "type": "uint256"
        }
      ],
      "name": "getUser",
      "outputs": [
        {
          "components": [
            {
              "internalType": "uint256",
              "name": "id",
              "type": "uint256"
            },
            {
              "internalType": "address",
              "name": "userAddress",
              "type": "address"
            },
            {
              "internalType": "bool",
              "name": "isRegistered",
              "type": "bool"
            }
          ],
          "internalType": "struct Aven.User",
          "name": "",
          "type": "tuple"
        }
      ],
      "stateMutability": "view",
      "type": "function"
    },
    {
      "inputs": [
        {
          "internalType": "uint256",
          "name": "id",
          "type": "uint256"
        }
      ],
      "name": "proofOfAttendance",
      "outputs": [],
      "stateMutability": "nonpayable",
      "type": "function"
    },
    {
      "inputs": [],
      "name": "registerUser",
      "outputs": [],
      "stateMutability": "nonpayable",
      "type": "function"
    },
    {
      "inputs": [
        {
          "internalType": "uint256",
          "name": "id",
          "type": "uint256"
        }
      ],
      "name": "removeEvent",
      "outputs": [],
      "stateMutability": "nonpayable",
      "type": "function"
    },
    {
      "inputs": [
        {
          "internalType": "uint256",
          "name": "id",
          "type": "uint256"
        },
        {
          "internalType": "string",
          "name": "_title",
          "type": "string"
        }
      ],
      "name": "searchEvent",
      "outputs": [
        {
          "components": [
            {
              "internalType": "uint256",
              "name": "id",
              "type": "uint256"
            },
            {
              "internalType": "string",
              "name": "title",
              "type": "string"
            },
            {
              "internalType": "string",
              "name": "desc",
              "type": "string"
            },
            {
              "internalType": "uint256",
              "name": "startDate",
              "type": "uint256"
            },
            {
              "internalType": "uint256",
              "name": "startTime",
              "type": "uint256"
            },
            {
              "internalType": "uint256",
              "name": "closeDate",
              "type": "uint256"
            },
            {
              "internalType": "uint256",
              "name": "duration",
              "type": "uint256"
            },
            {
              "internalType": "bool",
              "name": "isActive",
              "type": "bool"
            },
            {
              "internalType": "address",
              "name": "creator",
              "type": "address"
            }
          ],
          "internalType": "struct Aven.Program",
          "name": "",
          "type": "tuple"
        }
      ],
      "stateMutability": "view",
      "type": "function"
    }
  ],
  "bytecode": "0x60806040523480156200001157600080fd5b50604051620026db380380620026db833981810160405281019062000037919062000129565b336000806101000a81548173ffffffffffffffffffffffffffffffffffffffff021916908373ffffffffffffffffffffffffffffffffffffffff16021790555080600160006101000a81548173ffffffffffffffffffffffffffffffffffffffff021916908373ffffffffffffffffffffffffffffffffffffffff160217905550506200015b565b600080fd5b600073ffffffffffffffffffffffffffffffffffffffff82169050919050565b6000620000f182620000c4565b9050919050565b6200010381620000e4565b81146200010f57600080fd5b50565b6000815190506200012381620000f8565b92915050565b600060208284031215620001425762000141620000bf565b5b6000620001528482850162000112565b91505092915050565b612570806200016b6000396000f3fe608060405234801561001057600080fd5b50600436106100b45760003560e01c80638f08c432116100715780638f08c4321461017f5780639d100b611461019b578063a2bdedf4146101d3578063b0467deb14610205578063dd0d848e14610235578063f5dad55914610253576100b4565b806307727cb5146100b95780634d3820eb146100e957806352958be6146100f357806356164e1e1461010f57806371b3c85c1461012b57806376c5d08b14610163575b600080fd5b6100d360048036038101906100ce9190611843565b61026f565b6040516100e09190611a55565b60405180910390f35b6100f1610695565b005b61010d60048036038101906101089190611a77565b610839565b005b61012960048036038101906101249190611a77565b610ace565b005b61014560048036038101906101409190611a77565b610bbc565b60405161015a99989796959493929190611b1b565b60405180910390f35b61017d60048036038101906101789190611bb6565b610d57565b005b61019960048036038101906101949190611a77565b610efb565b005b6101b560048036038101906101b09190611a77565b6111ec565b6040516101ca99989796959493929190611b1b565b60405180910390f35b6101ed60048036038101906101e89190611a77565b611387565b6040516101fc93929190611c7b565b60405180910390f35b61021f600480360381019061021a9190611a77565b6113ee565b60405161022c9190611cf4565b60405180910390f35b61023d6114d9565b60405161024a9190611d6e565b60405180910390f35b61026d60048036038101906102689190611a77565b6114ff565b005b6102776115b9565b60008311801561028b575060058054905083105b1561048c57600583815481106102a4576102a3611d89565b5b906000526020600020906008020160405180610120016040529081600082015481526020016001820180546102d890611de7565b80601f016020809104026020016040519081016040528092919081815260200182805461030490611de7565b80156103515780601f1061032657610100808354040283529160200191610351565b820191906000526020600020905b81548152906001019060200180831161033457829003601f168201915b5050505050815260200160028201805461036a90611de7565b80601f016020809104026020016040519081016040528092919081815260200182805461039690611de7565b80156103e35780601f106103b8576101008083540402835291602001916103e3565b820191906000526020600020905b8154815290600101906020018083116103c657829003601f168201915b50505050508152602001600382015481526020016004820154815260200160058201548152602001600682015481526020016007820160009054906101000a900460ff161515151581526020016007820160019054906101000a900473ffffffffffffffffffffffffffffffffffffffff1673ffffffffffffffffffffffffffffffffffffffff1673ffffffffffffffffffffffffffffffffffffffff1681525050905061068f565b60008251111561068e576009826040516104a69190611e54565b908152602001604051809103902060405180610120016040529081600082015481526020016001820180546104da90611de7565b80601f016020809104026020016040519081016040528092919081815260200182805461050690611de7565b80156105535780601f1061052857610100808354040283529160200191610553565b820191906000526020600020905b81548152906001019060200180831161053657829003601f168201915b5050505050815260200160028201805461056c90611de7565b80601f016020809104026020016040519081016040528092919081815260200182805461059890611de7565b80156105e55780601f106105ba576101008083540402835291602001916105e5565b820191906000526020600020905b8154815290600101906020018083116105c857829003601f168201915b50505050508152602001600382015481526020016004820154815260200160058201548152602001600682015481526020016007820160009054906101000a900460ff161515151581526020016007820160019054906101000a900473ffffffffffffffffffffffffffffffffffffffff1673ffffffffffffffffffffffffffffffffffffffff1673ffffffffffffffffffffffffffffffffffffffff1681525050905061068f565b5b92915050565b600073ffffffffffffffffffffffffffffffffffffffff163373ffffffffffffffffffffffffffffffffffffffff1603610704576040517f08c379a00000000000000000000000000000000000000000000000000000000081526004016106fb90611eb7565b60405180910390fd5b600060016002805490506107189190611f06565b9050600060405180606001604052808381526020013373ffffffffffffffffffffffffffffffffffffffff16815260200160001515815250905060028190806001815401808255809150506001900390600052602060002090600202016000909190919091506000820151816000015560208201518160010160006101000a81548173ffffffffffffffffffffffffffffffffffffffff021916908373ffffffffffffffffffffffffffffffffffffffff16021790555060408201518160010160146101000a81548160ff02191690831515021790555050503373ffffffffffffffffffffffffffffffffffffffff16827fb442efe467d2ef30e62927a3cae0afcbc799a8a0944d8a143332e4e5e51cee5d60405160405180910390a35050565b60008111801561084d575060058054905081105b61088c576040517f08c379a000000000000000000000000000000000000000000000000000000000815260040161088390611f86565b60405180910390fd5b60011515600c600083815260200190815260200160002060009054906101000a900460ff161515146108f3576040517f08c379a00000000000000000000000000000000000000000000000000000000081526004016108ea90611ff2565b60405180910390fd5b6000805b600a6000848152602001908152602001600020805490508110156109b3573373ffffffffffffffffffffffffffffffffffffffff16600a6000858152602001908152602001600020828154811061095157610950611d89565b5b9060005260206000200160009054906101000a900473ffffffffffffffffffffffffffffffffffffffff1673ffffffffffffffffffffffffffffffffffffffff16036109a057600191506109b3565b80806109ab90612012565b9150506108f7565b50806109f4576040517f08c379a00000000000000000000000000000000000000000000000000000000081526004016109eb906120a6565b60405180910390fd5b600160009054906101000a900473ffffffffffffffffffffffffffffffffffffffff1673ffffffffffffffffffffffffffffffffffffffff1663731133e9338460016040518463ffffffff1660e01b8152600401610a5493929190612138565b600060405180830381600087803b158015610a6e57600080fd5b505af1158015610a82573d6000803e3d6000fd5b50505050813373ffffffffffffffffffffffffffffffffffffffff167f1db6d3a69797de57efa0aab32c568bedb2991183199a3a6736cb27c8036f5d2a60405160405180910390a35050565b60008103610b11576040517f08c379a0000000000000000000000000000000000000000000000000000000008152600401610b08906121ce565b60405180910390fd5b60058181548110610b2557610b24611d89565b5b9060005260206000209060080201600080820160009055600182016000610b4c919061161d565b600282016000610b5c919061161d565b60038201600090556004820160009055600582016000905560068201600090556007820160006101000a81549060ff02191690556007820160016101000a81549073ffffffffffffffffffffffffffffffffffffffff0219169055505050565b60058181548110610bcc57600080fd5b9060005260206000209060080201600091509050806000015490806001018054610bf590611de7565b80601f0160208091040260200160405190810160405280929190818152602001828054610c2190611de7565b8015610c6e5780601f10610c4357610100808354040283529160200191610c6e565b820191906000526020600020905b815481529060010190602001808311610c5157829003601f168201915b505050505090806002018054610c8390611de7565b80601f0160208091040260200160405190810160405280929190818152602001828054610caf90611de7565b8015610cfc5780601f10610cd157610100808354040283529160200191610cfc565b820191906000526020600020905b815481529060010190602001808311610cdf57829003601f168201915b5050505050908060030154908060040154908060050154908060060154908060070160009054906101000a900460ff16908060070160019054906101000a900473ffffffffffffffffffffffffffffffffffffffff16905089565b60006001600580549050610d6b9190611f06565b905060008542610d7b9190611f06565b905060008542610d8b9190611f06565b905060008542610d9b9190611f06565b905060006040518061012001604052808681526020018c81526020018b81526020018581526020018481526020018381526020018781526020016001151581526020013373ffffffffffffffffffffffffffffffffffffffff1681525090506005819080600181540180825580915050600190039060005260206000209060080201600090919091909150600082015181600001556020820151816001019081610e459190612390565b506040820151816002019081610e5b9190612390565b50606082015181600301556080820151816004015560a0820151816005015560c0820151816006015560e08201518160070160006101000a81548160ff0219169083151502179055506101008201518160070160016101000a81548173ffffffffffffffffffffffffffffffffffffffff021916908373ffffffffffffffffffffffffffffffffffffffff16021790555050505050505050505050505050565b600060058281548110610f1157610f10611d89565b5b90600052602060002090600802016040518061012001604052908160008201548152602001600182018054610f4590611de7565b80601f0160208091040260200160405190810160405280929190818152602001828054610f7190611de7565b8015610fbe5780601f10610f9357610100808354040283529160200191610fbe565b820191906000526020600020905b815481529060010190602001808311610fa157829003601f168201915b50505050508152602001600282018054610fd790611de7565b80601f016020809104026020016040519081016040528092919081815260200182805461100390611de7565b80156110505780601f1061102557610100808354040283529160200191611050565b820191906000526020600020905b81548152906001019060200180831161103357829003601f168201915b50505050508152602001600382015481526020016004820154815260200160058201548152602001600682015481526020016007820160009054906101000a900460ff161515151581526020016007820160019054906101000a900473ffffffffffffffffffffffffffffffffffffffff1673ffffffffffffffffffffffffffffffffffffffff1673ffffffffffffffffffffffffffffffffffffffff16815250509050600681908060018154018082558091505060019003906000526020600020906008020160009091909190915060008201518160000155602082015181600101908161113f9190612390565b5060408201518160020190816111559190612390565b50606082015181600301556080820151816004015560a0820151816005015560c0820151816006015560e08201518160070160006101000a81548160ff0219169083151502179055506101008201518160070160016101000a81548173ffffffffffffffffffffffffffffffffffffffff021916908373ffffffffffffffffffffffffffffffffffffffff16021790555050505050565b600681815481106111fc57600080fd5b906000526020600020906008020160009150905080600001549080600101805461122590611de7565b80601f016020809104026020016040519081016040528092919081815260200182805461125190611de7565b801561129e5780601f106112735761010080835404028352916020019161129e565b820191906000526020600020905b81548152906001019060200180831161128157829003601f168201915b5050505050908060020180546112b390611de7565b80601f01602080910402602001604051908101604052809291908181526020018280546112df90611de7565b801561132c5780601f106113015761010080835404028352916020019161132c565b820191906000526020600020905b81548152906001019060200180831161130f57829003601f168201915b5050505050908060030154908060040154908060050154908060060154908060070160009054906101000a900460ff16908060070160019054906101000a900473ffffffffffffffffffffffffffffffffffffffff16905089565b6002818154811061139757600080fd5b90600052602060002090600202016000915090508060000154908060010160009054906101000a900473ffffffffffffffffffffffffffffffffffffffff16908060010160149054906101000a900460ff16905083565b6113f661165d565b60008203611439576040517f08c379a0000000000000000000000000000000000000000000000000000000008152600401611430906124ae565b60405180910390fd5b60046000838152602001908152602001600020604051806060016040529081600082015481526020016001820160009054906101000a900473ffffffffffffffffffffffffffffffffffffffff1673ffffffffffffffffffffffffffffffffffffffff1673ffffffffffffffffffffffffffffffffffffffff1681526020016001820160149054906101000a900460ff1615151515815250509050919050565b600160009054906101000a900473ffffffffffffffffffffffffffffffffffffffff1681565b60008103611542576040517f08c379a00000000000000000000000000000000000000000000000000000000081526004016115399061251a565b60405180910390fd5b600a6000828152602001908152602001600020339080600181540180825580915050600190039060005260206000200160009091909190916101000a81548173ffffffffffffffffffffffffffffffffffffffff021916908373ffffffffffffffffffffffffffffffffffffffff16021790555050565b60405180610120016040528060008152602001606081526020016060815260200160008152602001600081526020016000815260200160008152602001600015158152602001600073ffffffffffffffffffffffffffffffffffffffff1681525090565b50805461162990611de7565b6000825580601f1061163b575061165a565b601f0160209004906000526020600020908101906116599190611696565b5b50565b604051806060016040528060008152602001600073ffffffffffffffffffffffffffffffffffffffff1681526020016000151581525090565b5b808211156116af576000816000905550600101611697565b5090565b6000604051905090565b600080fd5b600080fd5b6000819050919050565b6116da816116c7565b81146116e557600080fd5b50565b6000813590506116f7816116d1565b92915050565b600080fd5b600080fd5b6000601f19601f8301169050919050565b7f4e487b7100000000000000000000000000000000000000000000000000000000600052604160045260246000fd5b61175082611707565b810181811067ffffffffffffffff8211171561176f5761176e611718565b5b80604052505050565b60006117826116b3565b905061178e8282611747565b919050565b600067ffffffffffffffff8211156117ae576117ad611718565b5b6117b782611707565b9050602081019050919050565b82818337600083830152505050565b60006117e66117e184611793565b611778565b90508281526020810184848401111561180257611801611702565b5b61180d8482856117c4565b509392505050565b600082601f83011261182a576118296116fd565b5b813561183a8482602086016117d3565b91505092915050565b6000806040838503121561185a576118596116bd565b5b6000611868858286016116e8565b925050602083013567ffffffffffffffff811115611889576118886116c2565b5b61189585828601611815565b9150509250929050565b6118a8816116c7565b82525050565b600081519050919050565b600082825260208201905092915050565b60005b838110156118e85780820151818401526020810190506118cd565b60008484015250505050565b60006118ff826118ae565b61190981856118b9565b93506119198185602086016118ca565b61192281611707565b840191505092915050565b60008115159050919050565b6119428161192d565b82525050565b600073ffffffffffffffffffffffffffffffffffffffff82169050919050565b600061197382611948565b9050919050565b61198381611968565b82525050565b6000610120830160008301516119a2600086018261189f565b50602083015184820360208601526119ba82826118f4565b915050604083015184820360408601526119d482826118f4565b91505060608301516119e9606086018261189f565b5060808301516119fc608086018261189f565b5060a0830151611a0f60a086018261189f565b5060c0830151611a2260c086018261189f565b5060e0830151611a3560e0860182611939565b50610100830151611a4a61010086018261197a565b508091505092915050565b60006020820190508181036000830152611a6f8184611989565b905092915050565b600060208284031215611a8d57611a8c6116bd565b5b6000611a9b848285016116e8565b91505092915050565b611aad816116c7565b82525050565b600082825260208201905092915050565b6000611acf826118ae565b611ad98185611ab3565b9350611ae98185602086016118ca565b611af281611707565b840191505092915050565b611b068161192d565b82525050565b611b1581611968565b82525050565b600061012082019050611b31600083018c611aa4565b8181036020830152611b43818b611ac4565b90508181036040830152611b57818a611ac4565b9050611b666060830189611aa4565b611b736080830188611aa4565b611b8060a0830187611aa4565b611b8d60c0830186611aa4565b611b9a60e0830185611afd565b611ba8610100830184611b0c565b9a9950505050505050505050565b60008060008060008060c08789031215611bd357611bd26116bd565b5b600087013567ffffffffffffffff811115611bf157611bf06116c2565b5b611bfd89828a01611815565b965050602087013567ffffffffffffffff811115611c1e57611c1d6116c2565b5b611c2a89828a01611815565b9550506040611c3b89828a016116e8565b9450506060611c4c89828a016116e8565b9350506080611c5d89828a016116e8565b92505060a0611c6e89828a016116e8565b9150509295509295509295565b6000606082019050611c906000830186611aa4565b611c9d6020830185611b0c565b611caa6040830184611afd565b949350505050565b606082016000820151611cc8600085018261189f565b506020820151611cdb602085018261197a565b506040820151611cee6040850182611939565b50505050565b6000606082019050611d096000830184611cb2565b92915050565b6000819050919050565b6000611d34611d2f611d2a84611948565b611d0f565b611948565b9050919050565b6000611d4682611d19565b9050919050565b6000611d5882611d3b565b9050919050565b611d6881611d4d565b82525050565b6000602082019050611d836000830184611d5f565b92915050565b7f4e487b7100000000000000000000000000000000000000000000000000000000600052603260045260246000fd5b7f4e487b7100000000000000000000000000000000000000000000000000000000600052602260045260246000fd5b60006002820490506001821680611dff57607f821691505b602082108103611e1257611e11611db8565b5b50919050565b600081905092915050565b6000611e2e826118ae565b611e388185611e18565b9350611e488185602086016118ca565b80840191505092915050565b6000611e608284611e23565b915081905092915050565b7f496e76616c696420616464726573730000000000000000000000000000000000600082015250565b6000611ea1600f83611ab3565b9150611eac82611e6b565b602082019050919050565b60006020820190508181036000830152611ed081611e94565b9050919050565b7f4e487b7100000000000000000000000000000000000000000000000000000000600052601160045260246000fd5b6000611f11826116c7565b9150611f1c836116c7565b9250828201905080821115611f3457611f33611ed7565b5b92915050565b7f496e76616c6964206576656e7420494400000000000000000000000000000000600082015250565b6000611f70601083611ab3565b9150611f7b82611f3a565b602082019050919050565b60006020820190508181036000830152611f9f81611f63565b9050919050565b7f4576656e74206973206f6e676f696e6700000000000000000000000000000000600082015250565b6000611fdc601083611ab3565b9150611fe782611fa6565b602082019050919050565b6000602082019050818103600083015261200b81611fcf565b9050919050565b600061201d826116c7565b91507fffffffffffffffffffffffffffffffffffffffffffffffffffffffffffffffff820361204f5761204e611ed7565b5b600182019050919050565b7f596f75206469646e277420617474656e642074686973206576656e7400000000600082015250565b6000612090601c83611ab3565b915061209b8261205a565b602082019050919050565b600060208201905081810360008301526120bf81612083565b9050919050565b6000819050919050565b60006120eb6120e66120e1846120c6565b611d0f565b6116c7565b9050919050565b6120fb816120d0565b82525050565b600082825260208201905092915050565b50565b6000612122600083612101565b915061212d82612112565b600082019050919050565b600060808201905061214d6000830186611b0c565b61215a6020830185611aa4565b61216760408301846120f2565b818103606083015261217881612115565b9050949350505050565b7f496e76616c696420496400000000000000000000000000000000000000000000600082015250565b60006121b8600a83611ab3565b91506121c382612182565b602082019050919050565b600060208201905081810360008301526121e7816121ab565b9050919050565b60008190508160005260206000209050919050565b60006020601f8301049050919050565b600082821b905092915050565b6000600883026122507fffffffffffffffffffffffffffffffffffffffffffffffffffffffffffffffff82612213565b61225a8683612213565b95508019841693508086168417925050509392505050565b600061228d612288612283846116c7565b611d0f565b6116c7565b9050919050565b6000819050919050565b6122a783612272565b6122bb6122b382612294565b848454612220565b825550505050565b600090565b6122d06122c3565b6122db81848461229e565b505050565b5b818110156122ff576122f46000826122c8565b6001810190506122e1565b5050565b601f82111561234457612315816121ee565b61231e84612203565b8101602085101561232d578190505b61234161233985612203565b8301826122e0565b50505b505050565b600082821c905092915050565b600061236760001984600802612349565b1980831691505092915050565b60006123808383612356565b9150826002028217905092915050565b612399826118ae565b67ffffffffffffffff8111156123b2576123b1611718565b5b6123bc8254611de7565b6123c7828285612303565b600060209050601f8311600181146123fa57600084156123e8578287015190505b6123f28582612374565b86555061245a565b601f198416612408866121ee565b60005b828110156124305784890151825560018201915060208501945060208101905061240b565b8683101561244d5784890151612449601f891682612356565b8355505b6001600288020188555050505b505050505050565b7f496e76616c696420696400000000000000000000000000000000000000000000600082015250565b6000612498600a83611ab3565b91506124a382612462565b602082019050919050565b600060208201905081810360008301526124c78161248b565b9050919050565b7f496e636f7272656374206e756d62657200000000000000000000000000000000600082015250565b6000612504601083611ab3565b915061250f826124ce565b602082019050919050565b60006020820190508181036000830152612533816124f7565b905091905056fea264697066735822122070dd463722938e1873ac0b1734fafd2454e20b1f3de59efb25022fdb1738b11064736f6c63430008140033",
  "linkReferences": {},
  "deployedLinkReferences": {}
}